{
  "contractName": "MultiSigWallet",
  "abi": [
    {
      "inputs": [
        {
          "internalType": "uint8",
          "name": "_requiredApprovals",
          "type": "uint8"
        },
        {
          "internalType": "address[]",
          "name": "_approvingAddresses",
          "type": "address[]"
        }
      ],
      "stateMutability": "nonpayable",
      "type": "constructor"
    },
    {
      "anonymous": false,
      "inputs": [
        {
          "indexed": false,
          "internalType": "uint256",
          "name": "id",
          "type": "uint256"
        }
      ],
      "name": "TransferComplete",
      "type": "event"
    },
    {
      "stateMutability": "payable",
      "type": "receive",
      "payable": true
    },
    {
      "inputs": [
        {
          "internalType": "address payable",
          "name": "_to",
          "type": "address"
        },
        {
          "internalType": "uint256",
          "name": "amount",
          "type": "uint256"
        }
      ],
      "name": "createTransfer",
      "outputs": [
        {
          "internalType": "uint256",
          "name": "",
          "type": "uint256"
        }
      ],
      "stateMutability": "nonpayable",
      "type": "function"
    },
    {
      "inputs": [
        {
          "internalType": "uint256",
          "name": "_id",
          "type": "uint256"
        }
      ],
      "name": "getTransfer",
      "outputs": [
        {
          "components": [
            {
              "internalType": "address payable",
              "name": "to",
              "type": "address"
            },
            {
              "internalType": "uint256",
              "name": "amount",
              "type": "uint256"
            },
            {
              "internalType": "int256",
              "name": "numberOfApprovals",
              "type": "int256"
            },
            {
              "internalType": "bool",
              "name": "completed",
              "type": "bool"
            }
          ],
          "internalType": "struct MultiSigWallet.Transfer",
          "name": "",
          "type": "tuple"
        }
      ],
      "stateMutability": "view",
      "type": "function",
      "constant": true
    },
    {
      "inputs": [
        {
          "internalType": "uint256",
          "name": "_id",
          "type": "uint256"
        }
      ],
      "name": "approveTransfer",
      "outputs": [],
      "stateMutability": "nonpayable",
      "type": "function"
    },
    {
      "inputs": [],
      "name": "deposit",
      "outputs": [],
      "stateMutability": "payable",
      "type": "function",
      "payable": true
    },
    {
      "inputs": [],
      "name": "getWalletBalance",
      "outputs": [
        {
          "internalType": "uint256",
          "name": "",
          "type": "uint256"
        }
      ],
      "stateMutability": "view",
      "type": "function",
      "constant": true
    }
  ],
  "bytecode": "0x60806040523480156200001157600080fd5b506040516200115838038062001158833981810160405281019062000037919062000231565b60028260ff16101562000081576040517f08c379a0000000000000000000000000000000000000000000000000000000008152600401620000789062000381565b60405180910390fd5b8160ff1681511015620000cb576040517f08c379a0000000000000000000000000000000000000000000000000000000008152600401620000c290620003a3565b60405180910390fd5b81600160006101000a81548160ff021916908360ff16021790555060005b81518110156200016d576001600260008484815181106200010657fe5b602002602001015173ffffffffffffffffffffffffffffffffffffffff1673ffffffffffffffffffffffffffffffffffffffff16815260200190815260200160002060006101000a81548160ff0219169083151502179055508080600101915050620000e9565b505050620004b0565b60008151905062000187816200047c565b92915050565b600082601f8301126200019f57600080fd5b8151620001b6620001b082620003f9565b620003c5565b91508181835260208401935060208101905083856020840282011115620001dc57600080fd5b60005b83811015620002105781620001f5888262000176565b845260208401935060208301925050600181019050620001df565b5050505092915050565b6000815190506200022b8162000496565b92915050565b600080604083850312156200024557600080fd5b600062000255858286016200021a565b925050602083015167ffffffffffffffff8111156200027357600080fd5b62000281858286016200018d565b9150509250929050565b60006200029a60338362000428565b91507f4e756d626572206f6620726571756972656420617070726f76616c73206d757360008301527f742062652067726561746572207468616e2032000000000000000000000000006020830152604082019050919050565b60006200030260458362000428565b91507f4d7573742068617665206174206c65617374206173206d616e79206f776e657260008301527f7320617320746865206e756d626572206f6620617070726f76616c732072657160208301527f75697265640000000000000000000000000000000000000000000000000000006040830152606082019050919050565b600060208201905081810360008301526200039c816200028b565b9050919050565b60006020820190508181036000830152620003be81620002f3565b9050919050565b6000604051905081810181811067ffffffffffffffff82111715620003ef57620003ee6200047a565b5b8060405250919050565b600067ffffffffffffffff8211156200041757620004166200047a565b5b602082029050602081019050919050565b600082825260208201905092915050565b600062000446826200044d565b9050919050565b600073ffffffffffffffffffffffffffffffffffffffff82169050919050565b600060ff82169050919050565bfe5b620004878162000439565b81146200049357600080fd5b50565b620004a1816200046d565b8114620004ad57600080fd5b50565b610c9880620004c06000396000f3fe60806040526004361061004e5760003560e01c8063329a27e71461005a5780633ac172dd14610085578063c16fe907146100c2578063cacca4a0146100ff578063d0e30db01461012857610055565b3661005557005b600080fd5b34801561006657600080fd5b5061006f610132565b60405161007c9190610bb6565b60405180910390f35b34801561009157600080fd5b506100ac60048036038101906100a791906107be565b61013a565b6040516100b99190610bb6565b60405180910390f35b3480156100ce57600080fd5b506100e960048036038101906100e491906107fa565b61030a565b6040516100f69190610b9b565b60405180910390f35b34801561010b57600080fd5b50610126600480360381019061012191906107fa565b610456565b005b610130610752565b005b600047905090565b6000600260003373ffffffffffffffffffffffffffffffffffffffff1673ffffffffffffffffffffffffffffffffffffffff16815260200190815260200160002060009054906101000a900460ff166101c8576040517f08c379a00000000000000000000000000000000000000000000000000000000081526004016101bf90610b5b565b60405180910390fd5b81471161020a576040517f08c379a000000000000000000000000000000000000000000000000000000000815260040161020190610b1b565b60405180910390fd5b610212610754565b60405180608001604052808573ffffffffffffffffffffffffffffffffffffffff16815260200184815260200160008152602001600015158152509050600081908060018154018082558091505060019003906000526020600020906004020160009091909190915060008201518160000160006101000a81548173ffffffffffffffffffffffffffffffffffffffff021916908373ffffffffffffffffffffffffffffffffffffffff160217905550602082015181600101556040820151816002015560608201518160030160006101000a81548160ff021916908315150217905550505060016000805490500391505092915050565b610312610754565b6000808054905014610359576040517f08c379a000000000000000000000000000000000000000000000000000000000815260040161035090610b3b565b60405180910390fd5b6001600080549050038211156103a4576040517f08c379a000000000000000000000000000000000000000000000000000000000815260040161039b90610afb565b60405180910390fd5b600082815481106103b157fe5b90600052602060002090600402016040518060800160405290816000820160009054906101000a900473ffffffffffffffffffffffffffffffffffffffff1673ffffffffffffffffffffffffffffffffffffffff1673ffffffffffffffffffffffffffffffffffffffff16815260200160018201548152602001600282015481526020016003820160009054906101000a900460ff1615151515815250509050919050565b600260003373ffffffffffffffffffffffffffffffffffffffff1673ffffffffffffffffffffffffffffffffffffffff16815260200190815260200160002060009054906101000a900460ff166104e2576040517f08c379a00000000000000000000000000000000000000000000000000000000081526004016104d990610b5b565b60405180910390fd5b60008082815481106104f057fe5b906000526020600020906004020190508060030160009054906101000a900460ff1615610552576040517f08c379a000000000000000000000000000000000000000000000000000000000815260040161054990610adb565b60405180910390fd5b6003600083815260200190815260200160002060003373ffffffffffffffffffffffffffffffffffffffff1673ffffffffffffffffffffffffffffffffffffffff16815260200190815260200160002060009054906101000a900460ff16156105f0576040517f08c379a00000000000000000000000000000000000000000000000000000000081526004016105e790610b7b565b60405180910390fd5b60016003600084815260200190815260200160002060003373ffffffffffffffffffffffffffffffffffffffff1673ffffffffffffffffffffffffffffffffffffffff16815260200190815260200160002060006101000a81548160ff0219169083151502179055508060020160008154809291906001019190505550600160009054906101000a900460ff1660ff1681600201541261074e5760018160030160006101000a81548160ff0219169083151502179055508060000160009054906101000a900473ffffffffffffffffffffffffffffffffffffffff1673ffffffffffffffffffffffffffffffffffffffff166108fc82600101549081150290604051600060405180830381858888f19350505050158015610715573d6000803e3d6000fd5b507fbf544cfa66d6aa8a379ee38f1264a0cd4b7e0f810c0b592c54e4d81ef322a8ef826040516107459190610bb6565b60405180910390a15b5050565b565b6040518060800160405280600073ffffffffffffffffffffffffffffffffffffffff16815260200160008152602001600081526020016000151581525090565b6000813590506107a381610c34565b92915050565b6000813590506107b881610c4b565b92915050565b600080604083850312156107d157600080fd5b60006107df85828601610794565b92505060206107f0858286016107a9565b9150509250929050565b60006020828403121561080c57600080fd5b600061081a848285016107a9565b91505092915050565b61082c81610be2565b82525050565b61083b81610bf4565b82525050565b61084a81610c00565b82525050565b600061085d602383610bd1565b91507f7472616e736665722068617320616c7265616479206265656e20636f6d706c6560008301527f74656400000000000000000000000000000000000000000000000000000000006020830152604082019050919050565b60006108c3601f83610bd1565b91507f4e6f207472616e736665722065786973747320776974682074686174206964006000830152602082019050919050565b6000610903602883610bd1565b91507f6e6f7420656e6f75676820657468657220696e206163636f756e7420666f722060008301527f7472616e736665720000000000000000000000000000000000000000000000006020830152604082019050919050565b6000610969601c83610bd1565b91507f6e6f207472616e7366657273206578697374207269676874206e6f77000000006000830152602082019050919050565b60006109a9602783610bd1565b91507f6f6e6c7920616e206f776e65722063616e20657865637574652074686973206660008301527f756e6374696f6e000000000000000000000000000000000000000000000000006020830152604082019050919050565b6000610a0f602e83610bd1565b91507f5468697320616464726573732068617320616c726561647920617070726f766560008301527f6420746865207472616e736665720000000000000000000000000000000000006020830152604082019050919050565b608082016000820151610a7e6000850182610823565b506020820151610a916020850182610abd565b506040820151610aa46040850182610841565b506060820151610ab76060850182610832565b50505050565b610ac681610c2a565b82525050565b610ad581610c2a565b82525050565b60006020820190508181036000830152610af481610850565b9050919050565b60006020820190508181036000830152610b14816108b6565b9050919050565b60006020820190508181036000830152610b34816108f6565b9050919050565b60006020820190508181036000830152610b548161095c565b9050919050565b60006020820190508181036000830152610b748161099c565b9050919050565b60006020820190508181036000830152610b9481610a02565b9050919050565b6000608082019050610bb06000830184610a68565b92915050565b6000602082019050610bcb6000830184610acc565b92915050565b600082825260208201905092915050565b6000610bed82610c0a565b9050919050565b60008115159050919050565b6000819050919050565b600073ffffffffffffffffffffffffffffffffffffffff82169050919050565b6000819050919050565b610c3d81610be2565b8114610c4857600080fd5b50565b610c5481610c2a565b8114610c5f57600080fd5b5056fea26469706673582212203d2d3bdce29fb524da8cd77fa50d7812f5119bce5a883acb4883d87ab996905d64736f6c63430007050033",
  "immutableReferences": {},
  "source": "pragma solidity 0.7.5; \r\npragma abicoder v2;\r\n\r\ncontract MultiSigWallet\r\n{\r\n    struct Transfer{\r\n        address payable to;\r\n        uint256 amount;\r\n        int256 numberOfApprovals;\r\n        bool completed;\r\n    }\r\n    event TransferComplete(uint256 id);\r\n\r\n    Transfer[] transfers;\r\n\r\n    uint8 requiredApprovals;\r\n    mapping (address => bool) owners;\r\n    \r\n    mapping (uint => mapping(address => bool)) transferApprovals;\r\n\r\n    modifier onlyOwner(){\r\n        require(owners[msg.sender], \"only an owner can execute this function\");\r\n        _;\r\n    }\r\n\r\n    constructor(uint8 _requiredApprovals, address[] memory _approvingAddresses){\r\n        require(_requiredApprovals>=2, \r\n            \"Number of required approvals must be greater than 2\");\r\n        require(_approvingAddresses.length >= _requiredApprovals, \r\n            \"Must have at least as many owners as the number of approvals required\");\r\n\r\n        requiredApprovals = _requiredApprovals;\r\n\r\n        for (uint i =0; i< _approvingAddresses.length; i++){\r\n            owners[_approvingAddresses[i]] = true;\r\n        }\r\n    }\r\n\r\n    function createTransfer(address payable _to, uint256 amount) public onlyOwner returns(uint){\r\n        require(address(this).balance > amount, \"not enough ether in account for transfer\");\r\n        Transfer memory transfer = Transfer(_to, amount, 0, false);\r\n\r\n        transfers.push(transfer);\r\n        return transfers.length-1;\r\n    }\r\n\r\n    function getTransfer(uint _id) public view returns (Transfer memory){\r\n        require(transfers.length==0, \"no transfers exist right now\");\r\n        require( _id <= (transfers.length-1), \"No transfer exists with that id\");\r\n        return transfers[_id];\r\n    }\r\n\r\n    function approveTransfer(uint _id) public onlyOwner {\r\n        Transfer storage transfer = transfers[_id];\r\n        require(!transfer.completed, \"transfer has already been completed\");\r\n        require(!transferApprovals[_id][msg.sender], \r\n            \"This address has already approved the transfer\");\r\n\r\n        transferApprovals[_id][msg.sender] = true;\r\n        transfer.numberOfApprovals++;\r\n\r\n        if (transfer.numberOfApprovals >= requiredApprovals){\r\n            transfer.completed = true;\r\n            transfer.to.transfer(transfer.amount);\r\n            emit TransferComplete(_id);\r\n        }\r\n    }\r\n\r\n    receive() external payable {}\r\n    function deposit() public payable{}\r\n\r\n    function getWalletBalance() public view returns(uint256){\r\n        return address(this).balance;\r\n    }\r\n\r\n}",
  "sourcePath": "C:\\Code\\MultiSigWallet\\contracts\\MultiSigWallet.sol",
  "compiler": {
    "name": "solc",
    "version": "0.7.5+commit.eb77ed08.Emscripten.clang"
  },
  "schemaVersion": "3.4.3",
  "updatedAt": "2021-12-29T21:32:00.005Z",
  "networkType": "ethereum",
  "devdoc": {
    "kind": "dev",
    "methods": {},
    "version": 1
  },
  "userdoc": {
    "kind": "user",
    "methods": {},
    "version": 1
  }
}